{
  "_format": "hh-sol-artifact-1",
  "contractName": "Participation",
  "sourceName": "contracts/Participation.sol",
  "abi": [
    {
      "anonymous": false,
      "inputs": [
        {
          "indexed": true,
          "internalType": "uint256",
          "name": "nodeId",
          "type": "uint256"
        },
        {
          "indexed": true,
          "internalType": "address",
          "name": "owner",
          "type": "address"
        },
        {
          "indexed": false,
          "internalType": "uint256",
          "name": "timestamp",
          "type": "uint256"
        }
      ],
      "name": "NodeRegistered",
      "type": "event"
    },
    {
      "anonymous": false,
      "inputs": [
        {
          "indexed": true,
          "internalType": "uint256",
          "name": "nodeId",
          "type": "uint256"
        },
        {
          "indexed": true,
          "internalType": "address",
          "name": "owner",
          "type": "address"
        },
        {
          "indexed": false,
          "internalType": "uint256",
          "name": "amount",
          "type": "uint256"
        },
        {
          "indexed": false,
          "internalType": "uint256",
          "name": "timestamp",
          "type": "uint256"
        }
      ],
      "name": "RewardClaimed",
      "type": "event"
    },
    {
      "anonymous": false,
      "inputs": [
        {
          "indexed": true,
          "internalType": "uint256",
          "name": "nodeId",
          "type": "uint256"
        },
        {
          "indexed": true,
          "internalType": "address",
          "name": "staker",
          "type": "address"
        },
        {
          "indexed": false,
          "internalType": "uint256",
          "name": "amount",
          "type": "uint256"
        },
        {
          "indexed": false,
          "internalType": "uint256",
          "name": "timestamp",
          "type": "uint256"
        }
      ],
      "name": "StakeUpdated",
      "type": "event"
    },
    {
      "anonymous": false,
      "inputs": [
        {
          "indexed": true,
          "internalType": "uint256",
          "name": "nodeId",
          "type": "uint256"
        },
        {
          "indexed": false,
          "internalType": "uint256",
          "name": "minutesUp",
          "type": "uint256"
        },
        {
          "indexed": false,
          "internalType": "uint256",
          "name": "timestamp",
          "type": "uint256"
        }
      ],
      "name": "UptimeRecorded",
      "type": "event"
    },
    {
      "inputs": [
        {
          "internalType": "uint256",
          "name": "nodeId",
          "type": "uint256"
        }
      ],
      "name": "claimReward",
      "outputs": [],
      "stateMutability": "nonpayable",
      "type": "function"
    },
    {
      "inputs": [],
      "name": "nextId",
      "outputs": [
        {
          "internalType": "uint256",
          "name": "",
          "type": "uint256"
        }
      ],
      "stateMutability": "view",
      "type": "function"
    },
    {
      "inputs": [
        {
          "internalType": "uint256",
          "name": "",
          "type": "uint256"
        }
      ],
      "name": "nodeStakes",
      "outputs": [
        {
          "internalType": "uint256",
          "name": "",
          "type": "uint256"
        }
      ],
      "stateMutability": "view",
      "type": "function"
    },
    {
      "inputs": [
        {
          "internalType": "uint256",
          "name": "",
          "type": "uint256"
        }
      ],
      "name": "nodes",
      "outputs": [
        {
          "internalType": "address",
          "name": "owner",
          "type": "address"
        },
        {
          "internalType": "string",
          "name": "metadata",
          "type": "string"
        },
        {
          "internalType": "uint256",
          "name": "registeredAt",
          "type": "uint256"
        }
      ],
      "stateMutability": "view",
      "type": "function"
    },
    {
      "inputs": [
        {
          "internalType": "uint256",
          "name": "nodeId",
          "type": "uint256"
        },
        {
          "internalType": "uint256",
          "name": "minutesUp",
          "type": "uint256"
        }
      ],
      "name": "recordUptime",
      "outputs": [],
      "stateMutability": "nonpayable",
      "type": "function"
    },
    {
      "inputs": [
        {
          "internalType": "string",
          "name": "metadata",
          "type": "string"
        }
      ],
      "name": "registerNode",
      "outputs": [],
      "stateMutability": "nonpayable",
      "type": "function"
    },
    {
      "inputs": [
        {
          "internalType": "uint256",
          "name": "nodeId",
          "type": "uint256"
        }
      ],
      "name": "stakeToNode",
      "outputs": [],
      "stateMutability": "payable",
      "type": "function"
    },
    {
      "inputs": [
        {
          "internalType": "uint256",
          "name": "",
          "type": "uint256"
        }
      ],
      "name": "stats",
      "outputs": [
        {
          "internalType": "uint256",
          "name": "uptime",
          "type": "uint256"
        },
        {
          "internalType": "uint256",
          "name": "lastUpdate",
          "type": "uint256"
        },
        {
          "internalType": "uint256",
          "name": "earned",
          "type": "uint256"
        }
      ],
      "stateMutability": "view",
      "type": "function"
    }
  ],
  "bytecode": "0x6080604052348015600f57600080fd5b50610ed88061001f6000396000f3fe60806040526004361061007b5760003560e01c8063640b8e5b1161004e578063640b8e5b1461013c578063ad217ae514610179578063ae169a50146101b8578063ed9c4786146101e15761007b565b8063100c30bf146100805780631c53c280146100a957806327c6f43e146100e857806361b8ce8c14610111575b600080fd5b34801561008c57600080fd5b506100a760048036038101906100a2919061075a565b6101fd565b005b3480156100b557600080fd5b506100d060048036038101906100cb919061079a565b6102b0565b6040516100df939291906108a7565b60405180910390f35b3480156100f457600080fd5b5061010f600480360381019061010a919061094a565b610382565b005b34801561011d57600080fd5b506101266104e2565b6040516101339190610997565b60405180910390f35b34801561014857600080fd5b50610163600480360381019061015e919061079a565b6104e8565b6040516101709190610997565b60405180910390f35b34801561018557600080fd5b506101a0600480360381019061019b919061079a565b610500565b6040516101af939291906109b2565b60405180910390f35b3480156101c457600080fd5b506101df60048036038101906101da919061079a565b61052a565b005b6101fb60048036038101906101f6919061079a565b610659565b005b806002600084815260200190815260200160002060000160008282546102239190610a18565b925050819055504260026000848152602001908152602001600020600101819055508060026000848152602001908152602001600020600201600082825461026b9190610a18565b92505081905550817f73c0c00399865d91de0bac4b7336e504a9f8a90282a1ed8c33dc518ee5173e6a82426040516102a4929190610a4c565b60405180910390a25050565b60006020528060005260406000206000915090508060000160009054906101000a900473ffffffffffffffffffffffffffffffffffffffff16908060010180546102f990610aa4565b80601f016020809104026020016040519081016040528092919081815260200182805461032590610aa4565b80156103725780601f1061034757610100808354040283529160200191610372565b820191906000526020600020905b81548152906001019060200180831161035557829003601f168201915b5050505050908060020154905083565b60405180606001604052803373ffffffffffffffffffffffffffffffffffffffff16815260200183838080601f016020809104026020016040519081016040528093929190818152602001838380828437600081840152601f19601f82011690508083019250505050505050815260200142815250600080600154815260200190815260200160002060008201518160000160006101000a81548173ffffffffffffffffffffffffffffffffffffffff021916908373ffffffffffffffffffffffffffffffffffffffff16021790555060208201518160010190816104679190610cb0565b50604082015181600201559050503373ffffffffffffffffffffffffffffffffffffffff166001547f279d6f88fe4513609d52b3bc994171ccb2d73fc808a8fe38f530f833f65d9787426040516104be9190610997565b60405180910390a3600160008154809291906104d990610d82565b91905055505050565b60015481565b60036020528060005260406000206000915090505481565b60026020528060005260406000206000915090508060000154908060010154908060020154905083565b3373ffffffffffffffffffffffffffffffffffffffff1660008083815260200190815260200160002060000160009054906101000a900473ffffffffffffffffffffffffffffffffffffffff1673ffffffffffffffffffffffffffffffffffffffff16146105cd576040517f08c379a00000000000000000000000000000000000000000000000000000000081526004016105c490610e16565b60405180910390fd5b600060026000838152602001908152602001600020600201549050600060026000848152602001908152602001600020600201819055503373ffffffffffffffffffffffffffffffffffffffff16827ffc6ecd966b430510beae9124efe7dd517ed5286d7ed0ae258f8556c7a9765a44834260405161064d929190610a4c565b60405180910390a35050565b6000341161069c576040517f08c379a000000000000000000000000000000000000000000000000000000000815260040161069390610e82565b60405180910390fd5b346003600083815260200190815260200160002060008282546106bf9190610a18565b925050819055503373ffffffffffffffffffffffffffffffffffffffff16817f51f8b368caa181552ff4b05d519c782ac141e80f8e2b35cdba1926d43e2ed005344260405161070f929190610a4c565b60405180910390a350565b600080fd5b600080fd5b6000819050919050565b61073781610724565b811461074257600080fd5b50565b6000813590506107548161072e565b92915050565b600080604083850312156107715761077061071a565b5b600061077f85828601610745565b925050602061079085828601610745565b9150509250929050565b6000602082840312156107b0576107af61071a565b5b60006107be84828501610745565b91505092915050565b600073ffffffffffffffffffffffffffffffffffffffff82169050919050565b60006107f2826107c7565b9050919050565b610802816107e7565b82525050565b600081519050919050565b600082825260208201905092915050565b60005b83811015610842578082015181840152602081019050610827565b60008484015250505050565b6000601f19601f8301169050919050565b600061086a82610808565b6108748185610813565b9350610884818560208601610824565b61088d8161084e565b840191505092915050565b6108a181610724565b82525050565b60006060820190506108bc60008301866107f9565b81810360208301526108ce818561085f565b90506108dd6040830184610898565b949350505050565b600080fd5b600080fd5b600080fd5b60008083601f84011261090a576109096108e5565b5b8235905067ffffffffffffffff811115610927576109266108ea565b5b602083019150836001820283011115610943576109426108ef565b5b9250929050565b600080602083850312156109615761096061071a565b5b600083013567ffffffffffffffff81111561097f5761097e61071f565b5b61098b858286016108f4565b92509250509250929050565b60006020820190506109ac6000830184610898565b92915050565b60006060820190506109c76000830186610898565b6109d46020830185610898565b6109e16040830184610898565b949350505050565b7f4e487b7100000000000000000000000000000000000000000000000000000000600052601160045260246000fd5b6000610a2382610724565b9150610a2e83610724565b9250828201905080821115610a4657610a456109e9565b5b92915050565b6000604082019050610a616000830185610898565b610a6e6020830184610898565b9392505050565b7f4e487b7100000000000000000000000000000000000000000000000000000000600052602260045260246000fd5b60006002820490506001821680610abc57607f821691505b602082108103610acf57610ace610a75565b5b50919050565b7f4e487b7100000000000000000000000000000000000000000000000000000000600052604160045260246000fd5b60008190508160005260206000209050919050565b60006020601f8301049050919050565b600082821b905092915050565b600060088302610b667fffffffffffffffffffffffffffffffffffffffffffffffffffffffffffffffff82610b29565b610b708683610b29565b95508019841693508086168417925050509392505050565b6000819050919050565b6000610bad610ba8610ba384610724565b610b88565b610724565b9050919050565b6000819050919050565b610bc783610b92565b610bdb610bd382610bb4565b848454610b36565b825550505050565b600090565b610bf0610be3565b610bfb818484610bbe565b505050565b5b81811015610c1f57610c14600082610be8565b600181019050610c01565b5050565b601f821115610c6457610c3581610b04565b610c3e84610b19565b81016020851015610c4d578190505b610c61610c5985610b19565b830182610c00565b50505b505050565b600082821c905092915050565b6000610c8760001984600802610c69565b1980831691505092915050565b6000610ca08383610c76565b9150826002028217905092915050565b610cb982610808565b67ffffffffffffffff811115610cd257610cd1610ad5565b5b610cdc8254610aa4565b610ce7828285610c23565b600060209050601f831160018114610d1a5760008415610d08578287015190505b610d128582610c94565b865550610d7a565b601f198416610d2886610b04565b60005b82811015610d5057848901518255600182019150602085019450602081019050610d2b565b86831015610d6d5784890151610d69601f891682610c76565b8355505b6001600288020188555050505b505050505050565b6000610d8d82610724565b91507fffffffffffffffffffffffffffffffffffffffffffffffffffffffffffffffff8203610dbf57610dbe6109e9565b5b600182019050919050565b7f4e6f74206f776e65720000000000000000000000000000000000000000000000600082015250565b6000610e00600983610813565b9150610e0b82610dca565b602082019050919050565b60006020820190508181036000830152610e2f81610df3565b9050919050565b7f53656e642066756e647300000000000000000000000000000000000000000000600082015250565b6000610e6c600a83610813565b9150610e7782610e36565b602082019050919050565b60006020820190508181036000830152610e9b81610e5f565b905091905056fea26469706673582212203d7834e4a7b0f55e162c6809f61b1e0c390c8c7a4622fbd6ae725d5675183afc64736f6c634300081c0033",
  "linkReferences": {},
  "deployedLinkReferences": {}
}